S01100004C6162315F4C6F6F702E73726563DA
S11300000C942A000C9434000C9434000C943400A6
S11300100C9434000C9434000C9434000C9434008C
S11300200C9434000C9434000C9434000C9434007C
S11300300C9434000C9434000C9434000C9434006C
S11300400C9434000C9434000C9434000C9434005C
S11300500C94340011241FBECFE5D4E0DEBFCDBF25
S11300600E9448000C944A000C94000081E087BB75
S113007018BA21E089E09BE8A2E0B0E004C088B3AC
S1130080822788BBF7CF0197A109B109E1F7F7CF20
S10B00900E943600F894FFCF32
S9030000FC
