:100000000C942A000C9434000C9434000C943400AA
:100010000C9434000C9434000C9434000C94340090
:100020000C9434000C9434000C9434000C94340080
:100030000C9434000C9434000C9434000C94340070
:100040000C9434000C9434000C9434000C94340060
:100050000C94340011241FBECFE5D4E0DEBFCDBF29
:100060000E9436000C9445000C94000081E087BB90
:1000700018BA8EB583608EBD91E02CB53DB51DBC20
:0E0080001CBC88B3892788BBF8CFF894FFCF4B
:00000001FF
