S01200006C6162335F70617274332E7372656367
S113000029C0000042C000003DC500003EC0000001
S11300103CC000003AC0000038C0000036C00000F8
S113002034C0000032C0000030C00000EDC4000045
S11300302CC000003AC0000028C0000026C0000008
S113004024C0000022C0000020C000001EC0000028
S11300501CC0000011241FBECFE5D4E0DEBFCDBF1D
S113006010E0A0E6B0E0E2E2FCE002C005900D92F0
S1130070A237B107D9F723E0A2E7B0E001C01D928F
S1130080AC37B207E1F759D5CAC5BACF08959C0178
S1130090641750F45D9BFECFF901E60FF11D9081CA
S11300A09CB96F5F4613F6CF08951F920F920FB657
S11300B00F9211240F900FBE0F901F901895AF92BE
S11300C0BF92CF92DF92EF92FF920F931F93CF9341
S11300D0DF9300D000D0CDB7DEB7AC01109275002D
S11300E010927A0230917300832F90E0FA01E80FA6
S11300F0F91F20812134E9F4FA01E80FF91F218165
S1130100243509F002C4FA01E80FF91F92818091A5
S1130110740098130AC043E060E081E690E0B7DF22
S11301208091720080937300F4C381E08093750022
S1130130F4C32D3409F005C2FA01E80FF91F8181D7
S1130140873509F0BFC03F5F30937300709174002E
S1130150E0916000AE2EB12CC12CD12CEE24E3949E
S11301608EC090917A02923021F481E080937500E0
S1130170D4C321E0280F20937300DA01A20FB11D2C
S11301802C91022E000C330B2A153B0599F4A2E0A6
S1130190A80FA0937300FF24F394F90EF0927A024F
S11301A0109278029A012A0F311DF9019081791376
S11301B026C0C2C381E08093750007C490539A306F
S11301C0D8F46F5F609378028901000F111F220F2A
S11301D0331F220F331F220F331F200F311F2053D1
S11301E031099C91290F311D97FD3A958F5F8093BA
S11301F07300633079F416C0E092750013C0903236
S113020009F49AC390539A3008F4B7C360E02C2DD4
S11302103D2DF2CFDA01A80FB11D9C91791711F091
S1130220903261F6A0917300CA018A0F911DFC01FE
S11302308081082E000C990BA816B90639F403C066
S113024060E02C2D3D2DA150A0937300611104C0DA
S113025081E080937500B9C32F3F310529F020F068
S113026081E080937500B1C3F1E0FF1203C02093D5
S1130270760005C082E0F81202C0209379028091D2
S11302807300DA01A80FB11D9C9197136ACF809176
S11302907A02823020F481E0809375003EC380911D
S11302A07500813009F439C3E0917600F0E0E95833
S11302B0FF4F80917902808344E060E085E690E01E
S11302C0E6DE27C3823509F020C33F5F3093730015
S11302D070917400E0916000AE2EB12CC12CD12C31
S11302E0EE24E39488C090917A02913021F481E065
S11302F08093750012C321E0280F20937300DA0164
S1130300A20FB11D2C91022E000C330B2A153B05B4
S113031099F4A2E0A80FA0937300FF24F394F90EBC
S1130320F0927A02109278029A012A0F311DF90193
S11303309081791326C008C381E0809375004BC374
S113034090539A30D8F46F5F609378028901000F5C
S1130350111F220F331F220F331F220F331F200FB1
S1130360311F205331099C91290F311D97FD3A9576
S11303708F5F80937300633079F416C0E092750048
S113038013C0903209F4E0C290539A3008F403C3C6
S113039060E02C2D3D2DF2CFDA01A80FB11D9C9108
S11303A0791711F0903261F6A0917300CA018A0F97
S11303B0911DFC018081082E000C990BA816B9062A
S11303C039F403C060E02C2D3D2DA150A09373009F
S11303D0611104C081E080937500FDC22F3F310597
S11303E029F020F081E080937500F5C2F1E0FF125E
S11303F002C02093760080917300DA01A80FB11D2A
S11304009C91971370CF80917A02811104C081E08E
S11304108093750082C280917500813009F47DC299
S1130420E0917600F0E0E958FF4F808180937902F3
S113043009E2809F812D11241DEC82958F704AE082
S1130440BE016F5F7F4F90E0B7D3FC0101900020A5
S1130450E9F731977F01E81AF90A80917902809FC0
S1130460812D112482958F704AE0BE016F5F7F4F0A
S113047090E0A2D34E2D60E00ADE80917902809F45
S1130480812D112482958F704AE0BE016F5F7F4FEA
S113049090E092D3FC0101900020E9F731977F01AD
S11304A0E81AF90A80917902819F812D1124869599
S11304B086958695819F912D11249695969596956E
S11304C0990F292F220F220F920F891B4AE0BE0198
S11304D06F5F7F4F90E070D34E2D60E0D8DD809148
S11304E07902809F812D112482958F704AE0BE018C
S11304F06F5F7F4F90E060D3FC0101900020E9F72B
S113050031977F01E81AF90A80917902819F912D30
S11305101124969596959695990F292F220F220FBF
S1130520920F891B4AE0BE016F5F7F4F90E044D376
S11305304E2D60E0ACDD42E060E08AE690E0A7DDAD
S1130540E8C1233509F0E1C1FA01E80FF91F21815F
S1130550253509F0DAC1FA01E80FF91F82818D34DB
S113056009F0D3C13E5F3093730070917400E09141
S11305706000F0E0C12CD12CEE24E39495C060918E
S11305807A02623021F481E08093750099C081E0A1
S1130590830F80937300DA01A80FB11D8C91082E8C
S11305A0000C990B8E179F0791F422E0230F2093E0
S11305B07300FF24F394F60EF0927A0210927802FC
S11305C0DA01A20FB11D8C91781325C0C5C181E059
S11305D08093750071C020532A30D0F46F5F60930C
S11305E078028C01000F111F880F991F880F991F23
S11305F0880F991F800F911FC0972C91820F911D16
S113060027FD9A953F5F30937300633079F416C0E9
S1130610E092750013C0803209F49EC180538A3081
S113062008F4C7C160E08C2D9D2DF2CFDA01A30F31
S1130630B11D2C91721711F0203269F620917300CC
S1130640DA01A20FB11DAC910A2E000CBB0BEA1704
S1130650FB0739F403C060E08C2D9D2D21502093BD
S11306607300611104C081E08093750025C08F3F41
S1130670910529F020F021E0F21276C130C08031DA
S1130680910538F032E0F31273C181E08093750074
S113069017C021E0F21203C08093760005C032E057
S11306A0F31202C08093790230917300DA01A30F30
S11306B0B11D8C91871363CF80917A02823078F0D8
S11306C0E09176008E2F90E030917902432F50E034
S11306D0BC01640F751F6F3F710529F024F081E0A0
S11306E0809375001AC120917500213009F415C159
S11306F0481759076CF0F0E0E958FF4F00E010E0AC
S11307002191020F111D019648175907CCF702C019
S113071000E010E00F2EF9E2DF2EF02D3D9D812D3B
S1130720112482958F704AE0BE016F5F7F4F90E085
S113073043D2FC0101900020E9F731977F01E81AC8
S1130740F90A980136952795369527953695279574
S1130750A5ECB0E222D2FC01F295E295EF70EF270E
S1130760FF70EF279F01ADECBCEC17D296958795EF
S113077096958795969587959C01220F331F880F30
S1130780991F880F991F880F991F820F931F4AE0A2
S1130790BE016F5F7F4F9F01281B390BC9010CD22B
S11307A04E2D60E074DC809179028D9D812D1124A1
S11307B082958F704AE0BE016F5F7F4F90E0FCD15D
S11307C0FC0101900020E9F731977F01E81AF90A4A
S11307D098013695279536952795ABE7B4E1DDD199
S11307E0FC01F695E7959F01ADECBCECD6D196954E
S11307F0879596958795969587959C01220F331F2B
S1130800880F991F880F991F880F991F820F931FB4
S11308104AE0BE016F5F7F4F9F01281B390BC9015E
S1130820CBD14E2D60E033DC809179028D9D812DFA
S1130830112482958F704AE0BE016F5F7F4F90E074
S1130840BBD1FC0101900020E9F731975F01A81AA0
S1130850B90A9801ADECBCECA0D17C01F694E79404
S1130860F694E794F694E794970197D19695879533
S113087096958795969587959C01220F331F880F2F
S1130880991F880F991F880F991F820F931F4AE0A1
S1130890BE016F5F7F4FF701E81BF90BCF018CD1CD
S11308A04A2D60E0F4DB809179028D9D812D112425
S11308B082958F704AE0BE016F5F7F4F90E07CD1DC
S11308C0FC0101900020E9F731976F01C81AD90A99
S11308D0C701880F991FEE0CFF1CEE0CFF1CEE0CD9
S11308E0FF1C8E0D9F1D4AE0BE016F5F7F4F980174
S11308F0281B390BC90160D14C2D60E0C8DB42E0F4
S113090060E08AE690E0C3DB04C081E08093750078
S113091004C080917500813049F480917200809305
S1130920730043E060E08DE690E0B1DB80917300FA
S11309308F5F8093730059C0892F990F990BA81664
S1130940B90609F47DCC84CC892F990F990BA8168C
S1130950B90609F437CD3ECD082E000C990BE817E3
S1130960F90709F478CE7FCE80319105D0F597CE82
S113097031E0F31609F490CE97CEE0927802F901B3
S11309802081022E000C330B205331098D5F80939C
S1130990730061E03FCCE0927802F9012081022EDD
S11309A0000C330B205331098D5F8093730061E099
S11309B0F3CCE09278028C91082E000C990BC0972E
S11309C03D5F3093730061E031CE80917A028230D2
S11309D008F461CCA2CF80917A02882309F417CD60
S11309E09CCF22E0F21260CE50CE0F900F900F9069
S11309F00F90DF91CF911F910F91FF90EF90DF90B7
S1130A00CF90BF90AF9008951F920F920FB60F92A0
S1130A1011242F933F934F935F936F937F938F93FF
S1130A209F93AF93BF93EF93FF938CB1E0917200C8
S1130A30F0E0E458FD4F80835D9BFECF8CB9E091DC
S1130A407200F0E0E458FD4F908180917400981397
S1130A5003C08CE792E033DB809172008F5F809358
S1130A607200FF91EF91BF91AF919F918F917F9110
S1130A706F915F914F913F912F910F900FBE0F9007
S1130A801F9018951F920F920FB60F9211248F93F7
S1130A909F9380917B02811134C0809177018F5F95
S1130AA080937701853020F081E08093770102C044
S1130AB0813031F4C09A98B388E0892788BB1EC07E
S1130AC0823049F498B388E0892788BB98B384E0DE
S1130AD0892788BB13C0833049F498B384E08927FD
S1130AE088BB98B382E0892788BB08C098B382E0AA
S1130AF0892788BB98B381E0892788BB81E08093EC
S1130B007B029F918F910F900FBE0F901F901895AD
S1130B1010BC83E389B980B58F7E80BD80B58F7D9D
S1130B2080BD80B5877F80BD86E880BD52988AB13C
S1130B3088618AB9569A579A0895A8DAE9DF7894B1
S1130B408DE090E090937500809374001092730090
S1130B5010927200B89AB99ABA9ABB9AC09AC19A7A
S1130B60C29AC39A88E082BB80E88BBF1092770157
S1130B7010927B0280917B02811102C07894FACF9B
S1130B80F8942FEF87EA91E6215080409040E1F7F6
S1130B9000C0000010927B02EDCFA29FB001B39F72
S1130BA0C001A39F700D811D1124911DB29F700D72
S1130BB0811D1124911D0895BB274A3031F49923D6
S1130BC022F4BDE2909581959F4F01C0BB27FB01A4
S1130BD05527AA27880F991FAA1FA41710F0A41B32
S1130BE083955051B9F7A05DAA3308F0A95DA1938C
S1130BF0009779F7B111B1931192CB0100C0DC01D8
S1130C00FC01672F71917723E1F7329704C07C913F
S1130C106D9370836291AE17BF07C8F30895F8947B
S1050C20FFCF00
S1130C22204F4B0D004F4B0D0A000A0D0045520D8B
S1050C320000BC
S9030000FC
